:020000040008F2
:10000000A0270020A557080041130800474B08000F
:1000100043130800451308004713080000000000C0
:10002000000000000000000000000000491308006C
:100030004B130800000000004D1308007B4B080024
:100040004F130800511308005313080055130800FC
:1000500057130800591308005B1308005D130800CC
:10006000592C08005F130800B74B08000B4C080020
:1000700061130800772C0800011F08002B1F0800DF
:10008000631308006513080063360800671308004F
:10009000691308006B1308006D1308005D50080019
:1000A0006F130800711308001F4F08007313080036
:0C00B00075130800771308003F130800C8
:1000BC0010B582B00024DFF8B80ADFF8B81A08606F
:1000CC00DFF8AC0ADFF8B01A0860DFF8A40ADFF832
:1000DC00AC1A08600020DFF8A81A0870DFF8A40A30
:1000EC00006800905FF40010DFF89C1A08605FF461
:1000FC000000DFF8981A08605FF08070DFF88C1A47
:10010C000860642100A801F031F90028F9D05FF4EF
:10011C000010DFF8781A0860DFF8680A00680090B1
:10012C004FF47A7100A801F021F90028F8D0DFF81B
:10013C00540A00680090DFF8580A0068C00709D418
:10014C00E4B2002C06D14FF47A7100A801F00EF93C
:10015C000400F0E7E4B2002C13D100F028F800F012
:10016C002BFDDFF8300A00F072FCDFF8281A08715A
:10017C00DFF8200A00F01EFB4FF47A713E2000F0ED
:10018C00D1FB13BD0020C82801D2401CFBE75FF057
:10019C008070DFF8F41908600020142801D2401C8C
:1001AC00FBE75FF08070DFF8E41908607047F0B58A
:1001BC008BB006A8DFF8E019112201F049F900A86C
:1001CC00DFF8D819182201F053F90027DFF8C0091D
:1001DC000068C00740F10B81DFF8C4090068060015
:1001EC000020DFF8C0190860DFF8BC090068C00007
:1001FC0009D5DFF8B409006830F08050DFF8A81991
:10020C000860761E15E0FFF7BDFFDFF88409006873
:10021C0040070ED4DFF88C09006842F21071884256
:10022C0007D2DFF880090068401CDFF878190860F5
:10023C00EBE7DFF87009006842F21171884205D3D0
:10024C0000F0D7F806A801F04FF9D0E0DFF840092C
:10025C00006830F00400DFF838190860DFF818097E
:10026C0000680078A42840F08680DFF83C0900681C
:10027C0050F08060DFF830190860FFF783FFDFF87B
:10028C0010090068C0070ED5DFF81809006842F2A3
:10029C001071884207D2DFF80C090068401CDFF8A7
:1002AC0004190860EBE7DFF80009006830F08060A3
:1002BC00DFF8F4180860DFF8D808006830F00400A4
:1002CC00DFF8CC180860DFF8DC08006842F2107127
:1002DC00884246D2DFF8C8080068861BDFF8980809
:1002EC0000680078040000F09AF8DFF88C080068C9
:1002FC000078801C0500EDB2A81C864207D0DFF800
:10030C00A808006850F00100DFF89C180860DFF8BE
:10031C00680800680078444000F081F86D1EEDB26A
:10032C00002DF4D1DFF8500800680078E4B2844264
:10033C000ED1DFF84C080078401CDFF84418087028
:10034C00DFF868080068401CDFF8601808601BE0E4
:10035C00DFF824080068DFF82418086000F073F850
:10036C0012E0DFF84C080068401CDFF84418086005
:10037C000120070008E0DFF83C080068401CDFF8AB
:10038C003418086001200700FFB2002F2DD000A800
:10039C0001F0AAF8DFF8F8070068C00710D5DFF8FD
:1003AC000408006842F21071884209D2DFF8F407A1
:1003BC000068401CDFF8EC170860FFF7E3FEE9E784
:1003CC00DFF8B0070068DFF8B0170860DFF8A407A3
:1003DC000068DFF8A8170860DFF8B407006830F091
:1003EC000600DFF8AC17086001E000F018F80BB05D
:1003FC00F0BD72B6DFF87807DFF878170860DFF821
:10040C007007DFF874170860DFF86407DFF86C1703
:10041C0008600020DFF86817087062B67047DFF8D4
:10042C0058070068401CDFF850170860DFF84807D1
:10043C000068DFF8801B884204D1DFF83407DFF84E
:10044C00381708607047DFF834070068401CDFF885
:10045C002C170860DFF824070068DFF8581B884267
:10046C0004D1DFF80C07DFF81417086070472DE98A
:10047C00F84F04000D0000265FF0000B4FF6FF7ADA
:10048C00FF208DF80200FF275FF0FF384FF6FF7951
:10049C0020788DF80000A0788DF803009DF80000FE
:1004AC00092803D100208DF8010058E09DF80000C8
:1004BC00122803DA9DF80000092807DADFF80C0D82
:1004CC0001F012F800208DF8010048E0E07A0600F7
:1004DC0001208DF80100300621D55FFA8BFB1BEB58
:1004EC000400007B82461BF1010B5FFA8BFB1BEBBC
:1004FC000400007B5AEA002A1BF1010B5FFA8BFB0C
:10050C001BEB0400007B8DF802001BF1010B5FFA62
:10051C008BFB1BEB0400007B07001BF1010B70062F
:10052C000CD51BF1010B5FFA8BFB1BEB040090F954
:10053C000C0080461BF1010B1BF1010BB0060ED514
:10054C005FFA8BFB1BEB0400007B81461BF1010B5C
:10055C005FFA8BFB1BEB0400007B59EA00296E70E1
:10056C009DF803002870A5F802A09DF802002871E0
:10057C006F7185F806809DF80100BDE8F28F38B5E3
:10058C00DFF86C0B0068C00109D5DFF8680B00F0D0
:10059C00ABFFDFF8880BDFF8381C086003E15FF471
:1005AC000010DFF87C1B0860DFF8780B00F09CFF74
:1005BC000020DFF8201C08600020DFF8A81C086071
:1005CC000020C0B2082870DADFF80C1CC0B214226C
:1005DC0002FB00110870FF21DFF8FC2BC0B21423C2
:1005EC0003FB00225170FF21DFF8EC2BC0B2142367
:1005FC0003FB00229170FF21DFF8DC2BC0B2142327
:10060C0003FB0022D172FF21DFF8CC2BC0B21423E4
:10061C0003FB00221173FF21DFF8BC2BC0B21423A3
:10062C0003FB00225173FF21DFF8AC2BC0B2142363
:10063C0003FB00229173FF21DFF89C2BC0B2142323
:10064C0003FB0022D173FF21DFF88C2BC0B21423E3
:10065C0003FB00221174FF21DFF87C2BC0B21423A2
:10066C0003FB00225174FF21DFF86C2BC0B2142362
:10067C0003FB002291740021DFF85C2BC0B2142321
:10068C0003FB0022D1740021C9B208290BDADFF870
:10069C00482BC0B2142303FB0022C9B28A180023D2
:1006AC00D370491CF0E7401C8BE70420DFF82C1BAF
:1006BC000870DFF82C0BDFF8241B48605FF4800017
:1006CC00DFF8181B88600120DFF8101B087303206B
:1006DC00DFF8081B48730FF22530DFF8001B0861A8
:1006EC000FF23130DFF8F41A4861DFF88404DFF8D8
:1006FC00EC1A8861DFF87C04DFF8E01AC8614FF46B
:10070C008070DFF8D81A0884DFF8D00A01F096FA66
:10071C00DFF8541B08600020DFF874140860FFF742
:10072C00C7FCDFF8480B0078C0061BD5DFF8400B80
:10073C0000F0DAFEDFF8AC0A00F0D6FEDFF8340B7E
:10074C0000F0D2FE00F0E2FEDFF85C04006830F44A
:10075C008030DFF854140860DFF88C0ADFF8701A68
:10076C00086020E0DFF8100B00F0BEFE5FF0307088
:10077C0004005FF0F0700500DFF8000B0460DFF898
:10078C00000B0460DFF8FC0A0560DFF8540A056012
:10079C00DFF8F40A0460DFF8F40A0560DFF87C097E
:1007AC00DFF82C1A086031BD80B5DFF8240A006828
:1007BC00804701BDF0B599B00400DFF8D40A076892
:1007CC0010A8DFF8D01A212200F042FE0AA8DFF8A8
:1007DC00C81A152200F03CFE05A8DFF8C01A122238
:1007EC0000F036FE00A8DFF8B81A112200F030FE37
:1007FC00DFF8B403006810F0406F04D010A800F0CC
:10080C0073FE00208CE00020DFF8981308605FF482
:10081C000000DFF874130860DFF874030068C00789
:10082C000ED4DFF88003006842F21071884207D2C0
:10083C00DFF870030068401CDFF868130860EBE712
:10084C00DFF86003006842F21171884208D35FF44C
:10085C000000CE4908600AA800F046FE00205FE0C8
:10086C00FFF790FCCA48006840070BD4CD480068DD
:10087C0042F21071884205D2CA480068401CC9492E
:10088C000860EFE75FF40000C0490860C5480068E5
:10089C0042F21171884204D30AA800F025FE002010
:1008AC003EE0B548006800780500EDB2A42D07D1F4
:1008BC00BD48006850F08050BB49086000202FE014
:1008CC00FFF7ADFDFFF7BFFDB148006830F0040045
:1008DC00AF490860EDB2A52D1ED1B348006850F0A9
:1008EC000060B14908602078C01C0600220031006D
:1008FC00DFF87409006801F045FADFF8A819086000
:10090C00DFF8A0090068002801D0012008E005A844
:10091C0000F0EAFD002003E000A800F0E5FD002057
:10092C0019B0F0BDF0B589B004000D000026012708
:10093C00DFF85C090068009001A8DFF86C191A2236
:10094C0000F086FD8F480068009091480068C00751
:10095C0009D5F6B2002E06D14FF47A7100A800F03A
:10096C0005FD0600F1E7F6B2002E1CD18E4800689A
:10097C0030F000608C49086000F0BEFB0020DFF80E
:10098C00241908607F480068009081480068C007FF
:10099C0009D4F6B2002E06D14FF47A7100A800F0FB
:1009AC00E5FC0600F1E7F6B2002E1AD1FFF7FFFBCB
:1009BC0073480078002814D0DFF8F00800688078BD
:1009CC0040280ED1DFF8E40800680079E4B2A042B8
:1009DC0007D1DFF8D80800684079002801D1002041
:1009EC00070000F0E9F8F6B2002E02D001A800F0E2
:1009FC007BFD3800C0B209B0F0BD000080B5DFF857
:100A0C00B0080068401CDFF8A8180860FFF7BAFBB4
:100A1C0001BD000080B562480068401C6049086058
:100A2C0054480068401C5349086052480068DFF87D
:100A3C008415884203D1DFF880054E490860DFF841
:100A4C0074080068400101D5FFF79CFB01BD10B490
:100A5C0001000878821CA5200023DBB2D2B293429D
:100A6C0004D20C786040491C5B1CF6E7C0B210BC89
:100A7C0070472DE9F0418AB00400002600A8DFF889
:100A8C003818282200F0F4FCDFF830080068401C0D
:100A9C00DFF8281808601C2001F052FD0700002F19
:100AAC0004D100A800F020FD002042E02078C01CFA
:100ABC0005000020C0B2EDB2A84206D2C0B2015D62
:100ACC00C0B2C2191171401CF4E72E48006838609E
:100ADC000020B861DFF88C07006800280AD1DFF825
:100AEC0084070760DFF8D8070068401CDFF8D017D0
:100AFC0008601DE0DFF86C0700688046D8F8180025
:100B0C00002803D0D8F81880761CF7E7F6B2202E10
:100B1C0009D2C8F81870DFF8A8070068401CDFF885
:100B2C00A017086004E000A800F0DEFC002000E044
:100B3C0001200AB0BDE8F08110B5DFF89806006816
:100B4C00002814D0DFF88C0600680400DFF8840657
:100B5C0000688069DFF87C160860200001F048FD11
:100B6C00DFF860070068401EDFF85817086010BDFA
:100B7C00641000205C160020601600206416002013
:100B8C008D170020C0160020340E0E40300E0E4083
:100B9C000C17002004040020DC56080064560800E2
:100BAC00481600203C1600202C1600207816002039
:100BBC004C1600205016002070B588B0DFF80807DE
:100BCC000078002801D10120F2E1DFF8000700686D
:100BDC00401CDFF8F8160860DFF8EC060078401EC1
:100BEC00DFF8E4160870FFF72EFCDFF8C00600688B
:100BFC0000780400E4B2122C01DB0120D8E10026BD
:100C0C00F6B2E4B2E01C86420ADADFF8A00600680D
:100C1C00007800A9F6B27054FFF715FC761CEFE7CC
:100C2C009DF8020005009DF801003E2800F09E8111
:100C3C0040280CD04E2800F082814F2800F07F8194
:100C4C00522800F092816F2800F0A481A9E19DF850
:100C5C000300012800F0EB80DFF8740605709DF8A6
:100C6C000300DFF86C1648709DF80400DFF860167E
:100C7C0088709DF80300412864D0422857D04B2837
:100C8C0008D04C2834D05B2840F08B80DFF8440629
:100C9C0000F02AFC15F13000DFF83C160873DFF881
:100CAC00380600F021FC9DF8040000281FD1DFF865
:100CBC002805EDB2142101FB0500C07C50F00400A6
:100CCC00DFF81415EDB2142202FB0511C874DFF81D
:100CDC000805EDB2142101FB0500C07C10F0FD00ED
:100CEC00DFF8F414EDB2142202FB0511C87488E08D
:100CFC009DF802003030DFF8E4150873DFF8DC05EE
:100D0C0000F0F2FB9DF8040000280FD1DFF8C804B6
:100D1C00EDB2142101FB0500C07C10F0F300DFF8EC
:100D2C00B814EDB2142202FB0511C87469E09DF8E9
:100D3C0002003030DFF8A8150873DFF8A40500F0C6
:100D4C00D3FB5EE09DF802003030DFF89815087395
:100D5C00DFF8900500F0C8FB9DF8040000281FD1B7
:100D6C00DFF87404EDB2142101FB0500C07C50F0D7
:100D7C000800DFF86414EDB2142202FB0511C874EC
:100D8C00DFF85404EDB2142101FB0500C07C10F017
:100D9C00FB00DFF84414EDB2142202FB0511C874F9
:100DAC002FE09DF802003030DFF83C1508739DF8F9
:100DBC000300C0B2000900F0F5FADFF82C15087634
:100DCC009DF8030010F00F0000F0ECFADFF8181596
:100DDC0048769DF80400C0B2000900F0E3FADFF891
:100DEC00081581F824009DF8040010F00F0000F0A5
:100DFC00D9FADFF8F41481F82500DFF8EC0400F0E0
:100E0C0073FB9DF80400002804D1DFF8640400F0A3
:100E1C006BFB93E0DFF8D40400F066FBDFF894047E
:100E2C00006850F00200DFF88C14086086E09DF832
:100E3C00040000280ED0012859D002280ED0032817
:100E4C0033D005283DD006284DD0072853D008288C
:100E5C0027D063E0002000F0B1F86FE0DFF89004D9
:100E6C000078401CDFF888140870DFF884040078E0
:100E7C00002812D1DFF87C040078401CDFF87414D1
:100E8C000870DFF870040078002806D1DFF86804D9
:100E9C000078401CDFF86014087000A800F08EF891
:100EAC004CE000A800F08AF848E0CB48EDB21421E1
:100EBC0001FB05004078102802D100A800F07EF854
:100ECC003CE0C548EDB2142101FB0500C07C50F09C
:100EDC001000C149EDB2142202FB0511C87400A820
:100EEC0000F06CF82AE000A800F068F826E000A8F2
:100EFC0000F064F822E0DFF8040400F0F5FAB648DC
:100F0C00EDB2142101FB0500C07C10F0F300B249D6
:100F1C00EDB2142202FB0511C8740FE09DF8040019
:100F2C0000F002FBDFF8D80300F0DEFADFF88403F0
:100F3C00006850F00400DFF87C13086037E005A966
:100F4C0000A8FFF794FA05AA0DF10301012000F0A7
:100F5C006CF8A148EDB2142101FB05004078002883
:100F6C0002D1002000F02AF821E020E00020C0B2DD
:100F7C000A2808DA00A9C0B241188978BD4AC0B263
:100F8C008154401CF3E7B948006850F01000B74991
:100F9C0008600CE0C748006850F48030C549086010
:100FAC0005E0C448006850F00800C2490860002001
:100FBC0008B070BD64110020641000201FB504003F
:100FCC00FF208DF80000A0788DF80100E0788DF8F6
:100FDC00020020798DF80300FF208DF80400C6482C
:100FEC0000788DF80500C34800788DF80600C048DD
:100FFC0000788DF807009DF801008DF80800FF209F
:10100C00ADF80A00FF208DF80C00FF208DF80D00C4
:10101C005FF0FF308DF80E00FF208DF8090002AA5A
:10102C0000A9022000F001F81FBD2DE9F0438BB0A0
:10103C0004000D0016005FF0000900A8B1492B2236
:10104C0000F006FA1C2001F07BFA0700002F04D1F7
:10105C0000A800F049FA002047E00020C0B20828A0
:10106C0006DAC0B2415DC0B2C2199171401CF5E7FD
:10107C00A548006838603C713078B8737088388245
:10108C003079B8747079F8747078F873B079387501
:10109C000020B8614F480068002807D14D48076010
:1010AC0088480068401C874908601DE04948006872
:1010BC008046D8F81800002804D0D8F8188019F108
:1010CC000109F6E75FFA89F9B9F1200F07D2C8F8E0
:1010DC0018707C480068401C7A49086004E000A83D
:1010EC0000F002FA002000E001200BB0BDE8F08314
:1010FC00D81600200401002010B55A4800680028BA
:10110C000AD0584800680400564800688069554960
:10111C000860200001F06CFA10BD00003D130800BF
:10112C00100E0E40E802002070B501240025614825
:10113C00006800041BD0754800F0D6F90026F6B202
:10114C00042E0EDA5B480068204206D07048EDB2DF
:10115C00142101FB050000F0C7F964006D1C761C1E
:10116C00EDE754480068000C000452490860FFF792
:10117C0023FD68480068C00704D50FF239001449F4
:10118C00086016E047480068002812D1354800680E
:10119C0000280ED033480068001DFFF70BFB002819
:1011AC0007D0594800685C4908600FF241000849B3
:1011BC00086070BD80B559480068401C57490860EC
:1011CC00FEF7F5FF08480249086001BD805308008E
:1011DC00381600203416002064120020EC14002075
:1011EC00000E0E40405708003511080010B52D4870
:1011FC00006801F03DFA0400E4B22000001F012851
:10120C002ED8FFF779FF002026490860294800688E
:10121C0030F00060274908603E480068C0070BD5D5
:10122C003D48006842F21071884205D23A48006885
:10123C00401C39490860EFE73948006842F21171E7
:10124C00884209D3374800F04FF932480068C0078C
:10125C0002D5FEF797FFF8E7334834490860FFE7FB
:10126C0010BD00006C16002058160020DC16002063
:10127C00C40300200416002004020020040C0E40BD
:10128C00000C0E40040E0E40140C0E40140E0E40BA
:10129C00C4160020A45308007C560800F056080021
:1012AC000457080054160020B4550800641600209A
:1012BC00441600202C160020305308008016002005
:1012CC0070160020681600208D1700207C16002058
:1012DC00301600208057080060030020D002002048
:1012EC00A0020020B8020020DC010020CC0300206A
:1012FC00901700208F1700208E1700201857080019
:10130C003855080004530800C01600209C03002028
:10131C00700000200C1700204016002074160020CE
:10132C003C1600202402002035110800381600203D
:10133C007047FEE7FEE7FEE7FEE7FEE7FEE7FEE7A7
:10134C00FEE7FEE7FEE7FEE7FEE7FEE7FEE7FEE769
:10135C00FEE7FEE7FEE7FEE7FEE7FEE7FEE7FEE759
:10136C00FEE7FEE7FEE7FEE7FEE7FEE710B402004D
:10137C00354800681468A04205D3334800681468E7
:10138C00001B030007E05FF0FF301468001B2E4CBD
:10139C002468201803008B4201D2002000E00120B9
:1013AC0010BC70470100FF20C9B20A2903DA11F101
:1013BC003002100008E0C9B20A2905DBC9B21029B5
:1013CC0002DA11F157021000C0B270472DE9FE434A
:1013DC0004000D0000260027DFF870800020C0B24A
:1013EC000A281BDAB4FBF8F189465FFA89F9B9F1DE
:1013FC00000F01D001210E00F6B2002E05D019F11C
:10140C00300100AAFFB2B9547F1CB4FBF8F108FB01
:10141C0011440A21B8FBF1F8401CE0E7F6B2002EAB
:10142C0004D10120070030208DF80000002000A915
:10143C00FFB2785400A9280001F068FA3800C0B255
:10144C00BDE8FE8300000000C016002000CA9A3BD5
:10145C0062B38B0708D0521E11F8013B00F8013B18
:10146C0000F024808B07F6D1830740F0208000BF6A
:10147C00103A07D330B4B1E83810103AA0E838105D
:10148C00F9D230BC530724BFB1E80810A0E808100B
:10149C0044BF51F8043B40F8043BD20724BF31F859
:1014AC00022B20F8022B44BF0B7803707047083ACC
:1014BC0007D3B1E80810083A40F8043B40F804CBD5
:1014CC00F7D25307E4E750F8041B61B150F8042B32
:1014DC00D30744BFA9F101039A18002342F8043B37
:1014EC00091FFAD1EFE7704770B5040025000026FC
:1014FC002878002802D0761C6D1CF9E722003100F8
:10150C00DFF87C06006801F0EDFA70BD80B5DFF8FD
:10151C0074060088ADF8000000AA0221DFF860060E
:10152C00006801F0DFFA01BD2DE9FE43040000253F
:10153C000026DFF854860020C0B20A2819DAB4FB62
:10154C00F8F1303100AAC0B2815400A9C0B2415C9C
:10155C00302901D001210D00EDB2002D00D0761CF8
:10156C00B4FBF8F108FB11440A21B8FBF1F8401C5C
:10157C00E2E7EDB2002D01D101200600F6B23000F9
:10158C0000F0DEFF8146B9F1000F08D10220DFF830
:10159C00FC1508700FF2B550DFF8F415086009203F
:1015AC0007003000C0B2002809D000A9795CC0B295
:1015BC0010EB090202F8011C7F1E401EF2E74A469E
:1015CC00F6B23100DFF8B805006801F08BFA484636
:1015DC0001F00EF8BDE8F78370B5ACB000A8DFF8E9
:1015EC00C0151122FFF734FF19A8DFF8B8154822EF
:1015FC00FFF73EFF0124012505A8DFF8AC155022AA
:10160C00FFF736FF19A8FFF76FFF0026F6B2082E7A
:10161C0012DADFF89805006804420AD100200500B0
:10162C0005A8F6B20A2101FB0600FFF75DFFFFF7E4
:10163C006DFF6400761CE9E7EDB2002D02D000A826
:10164C00FFF752FFFFF762FF2CB070BD00B585B0FD
:10165C00002080B2802806D20021DFF8542580B209
:10166C008154401CF5E70020DFF828150870002095
:10167C00C0B2802806DA0021DFF81C25C0B28154E4
:10168C00401CF5E7DFF82805DFF828150860DFF8BF
:10169C002005DFF824150860DFF82005DFF8201599
:1016AC00086002208DF80000DFF804050190DFF8D7
:1016BC00080502908020ADF802000FF2590003904B
:1016CC0000A801F05BF9DFF8B8140860DFF8B0048B
:1016DC000068002805D10FF27540DFF8B4140860DB
:1016EC0010E0DFF8E004FFF7FFFEDFF8C00400684D
:1016FC0050F00400DFF8B41408600FF22D20DFF86E
:10170C009014086005B000BD80B5DFF88404006853
:10171C00804701BDDFF8A0040068401CDFF8981476
:10172C000860DFF894040068DFF89C14884204D148
:10173C00DFF87C04DFF880140860704710B592B0B5
:10174C000AA8DFF888141922FFF782FE3A208DF8D8
:10175C00020020208DF803000A208DF824000D20B3
:10176C008DF8250000208DF826000AA8FFF7BCFE96
:10177C000024E4B2082C2CDAE4B20A2C07DBE4B225
:10178C000A2094FBF0F030308DF8000002E030209D
:10179C008DF80000E4B20A2094FBF0F100FB11403C
:1017AC0030308DF801000020C0B220280CDADFF8B0
:1017BC002014E4B251F83410C0B2415C00AAC0B29B
:1017CC0082181171401CEFE700A8FFF78DFE641C16
:1017DC00CFE7FFF79BFE12B010BD10B584B000A888
:1017EC00DFF8F0131CC91CC00C390C3800A8FFF72B
:1017FC007BFE1FBD10B584B000A8DFF8DC131CC93C
:10180C001CC00C390C3800A8FFF76EFEDFF88C03F7
:10181C000078C0070CD5DFF884030068400840004E
:10182C00DFF878130860DFF8B403FFF75DFE23E000
:10183C00DFF86803006850F00100DFF860130860FF
:10184C00DFF89C03FFF750FE002001F03DFB012068
:10185C0001F03AFB022001F037FB032001F034FBCE
:10186C00042001F031FB052001F02EFB062001F0D5
:10187C002BFB072001F028FB1FBD10B50400E4B2C0
:10188C00572C02D1002001F078FBE4B2502C02D18D
:10189C00012001F072FBE4B2422C02D1022001F0D3
:1018AC006CFBE4B2432C02D1032001F066FBE4B2E2
:1018BC00472C02D1042001F060FBE4B2592C02D178
:1018CC00052001F05AFBE4B24F2C02D1062001F0A6
:1018DC0054FBE4B2522C02D1072001F04EFB10BD98
:1018EC0000B589B000A8DFF8FC122322FFF7B0FD89
:1018FC0000A8FFF7F9FDA9480078800709D5A7488B
:10190C00006830F00200A5490860B448FFF7ECFD10
:10191C0008E0A248006850F00200A0490860B048F6
:10192C00FFF7E2FD09B000BD38B50024A1480068FE
:10193C00A1490968884200F09A80E4B2002C40F07A
:10194C0096809C48006800780500EDB228000828B5
:10195C0002D00D2833D03CE09048007840070DD5DC
:10196C008C480078802826DA8B488A4909780D54EF
:10197C0088480078401C874908701CE0854800782E
:10198C00002809D083480078401E82490870002046
:10199C008149804A127850548948006887498842A6
:1019AC0009D087480068401E854908608E48008829
:1019BC00401E8D4908808D48FFF796FD40E0774822
:1019CC000078400705D4012004000FF2B5007049DF
:1019DC00086070480078802808DA6F486D490978EB
:1019EC000D546C480078401C6A4908702900C9B233
:1019FC006348006801F05EF86848007840071FD41F
:101A0C006F48006805706E480068401C6C4908609F
:101A1C0075480088401C74490880694800687449FE
:101A2C0088420DD3EDB20D2D0AD06448644908608C
:101A3C0000206D4908806F48FFF756FD6E4908601D
:101A4C0056480078C00703D52800C0B2FFF715FF31
:101A5C0058480068401C57490860564800685A4965
:101A6C008842FFF463AF5248524908605EE762480F
:101A7C000068002803D06048006800F0F9FD31BD13
:101A8C0070B50124002005004C48EDB2285C5B4980
:101A9C00EDB2695C884201D0002004006D1CE4B2F8
:101AAC00002C02D0EDB2042DEEDBE4B2002C2ED0D3
:101ABC00002004004148EDB22856303806006D1C59
:101ACC0076B2002E23D476B20A2E20DA0A2000FB3E
:101ADC0006F04B4908703948EDB2285630380600EC
:101AEC006D1C76B2002E12D476B20A2E0FDA444850
:101AFC00007830184249087041480078082806DA06
:101B0C002E48EDB2285C0D2801D101200400E4B26E
:101B1C00002C04D00FF21D001D49086005E0394867
:101B2C00FFF7E2FC38481A49086024482449086049
:101B3C0070BD000080B53448154908602448304910
:101B4C00097810EBC1004068804701BD80B513488F
:101B5C00006850F00040114908602C48FFF7C4FCA5
:101B6C000A480078FFF7E0FCFFF7D0FC00201E4984
:101B7C00088012481249086023480549086001BDD5
:101B8C00AC1600207632080000CA9A3B961700204B
:101B9C00A81600209517002004130020A41600207E
:101BAC002C5708008452080034520800DC16002020
:101BBC0084130020B8160020B41600200414002052
:101BCC00BC160020C000002004140020D0550800D2
:101BDC00440100208C570800985708003C04002052
:101BEC0034040020E8540800881700204804002022
:101BFC004414002044020020B016002014040020DD
:101C0C0097170020880300203519080000030020D6
:101C1C00012110F01F029140DFF8B02840B24309B7
:101C2C0042F823107047012110F01F029140DFF899
:101C3C00A02840B2430942F8231070472DE9F04721
:101C4C0004002078022804D034D3042821D010D3E7
:101C5C0030E0DFF88008050050200600DFF8780837
:101C6C000700082080467FF0080081461A20824633
:101C7C0022E0DFF86808050050200600DFF8600855
:101C8C000700002080465FF0FF30814630208246FE
:101C9C0012E0DFF85008050050200600DFF8480875
:101CAC0007005FF4002080467FF40020814600206E
:101CBC00824601E0002063E02869C00201D50020C3
:101CCC005EE0DFF828080068012195F92820914092
:101CDC000843DFF81818086060686860A068A8609E
:101CEC00207B2873607B6873206968616069A861D8
:101CFC00A069E861E0692862208CA884286950F406
:101D0C008010286128680660286847602868C0F839
:101D1C0008802868C0F80C902868C0F820A0687B60
:101D2C0002281BD1A0692968C1F80001A069401CD8
:101D3C002968C1F8100101202968C1F804010120AB
:101D4C002968C1F814010020286240F201102968AA
:101D5C00C1F820015FF4002029688860687B0328A3
:101D6C0003D1DFF88C072968886095F9280040B208
:101D7C00FFF759FF95F9280040B2FFF749FF2800FB
:101D8C00BDE8F087F8B504000D00160032002900FC
:101D9C0014F12C0000F088FC0700002F01D100206A
:101DAC0007E0DFF854070068002801D500F07EF842
:101DBC003800F2BD80B5DFF84407DFF8181708606B
:101DCC000020DFF8101748600020DFF80817C86201
:101DDC000020DFF80017C8610020DFF8F8168884AF
:101DEC000020DFF8F01608620020DFF8E816086122
:101DFC000D20DFF8E01681F82800DFF80407DFF883
:101E0C00DC1608600020DFF8D41648600020DFF8EC
:101E1C00CC16C8620020DFF8C416C8610020DFF8B9
:101E2C00BC1688840020DFF8B41608620020DFF8A6
:101E3C00AC1608610E20DFF8A41681F82800DFF834
:101E4C00C406DFF8A01608600020DFF8981648607A
:101E5C000020DFF89016C8620020DFF88816C861F1
:101E6C000020DFF8801688840020DFF878160862DE
:101E7C000020DFF8701608610F20DFF8681681F873
:101E8C002800DFF85006DFF8801608600FF24D408E
:101E9C00DFF860160860DFF87406FFF725FB01BD5C
:101EAC0080B5DFF850060068804701BD80B5DFF8CB
:101EBC006006006850F00100DFF854160860DFF887
:101ECC001406DFF844160860DFF844060078C007F3
:101EDC000FD5DFF8200600688047DFF83806006869
:101EEC00DFF8341608600121DFF82C06FFF73EFA04
:101EFC00EAE701BD80B5DFF8E405DFF820160860DD
:101F0C00DFF82006DFF818160860DFF81C060068FA
:101F1C00401CDFF81416086000F016F801BD80B5FF
:101F2C00DFF8C005DFF8F4150860DFF80006DFF80D
:101F3C00F0150860DFF8F8050068401CDFF8F015B4
:101F4C00086000F001F801BD70B5DFF8D00500683D
:101F5C00006840690600DFF8C40500680068006985
:101F6C00000338D5300336D5DFF8B005006840687B
:101F7C00C06BDFF8A81509688968084214D1DFF82E
:101F8C00A0050068006850F00100DFF8941509689E
:101F9C000860DFF88C050068006830F00600DFF898
:101FAC0080150968086016E0DFF8740500680068A1
:101FBC0040084000DFF8681509680860DFF85C0528
:101FCC000068407B022806D10120DFF85015096813
:101FDC000968C1F80401DFF844050068006800696D
:101FEC00800570D5B0056ED5DFF830050068006B44
:101FFC00401EDFF8281509680863DFF82005006823
:10200C00006880690400DFF814050068006B002884
:10201C0025D0DFF808050068406B401CDFF8FC1485
:10202C0009684863DFF8F4040068406B007804002A
:10203C00DFF8E8040068007B012803D194FAA4F0CF
:10204C00000E04002000C0B2DFF8D0140968096843
:10205C00C861DFF8C80400684069804733E04FF47A
:10206C000070DFF8B81409680968C860DFF8AC04C0
:10207C000068006930F40010DFF8A01409680861EA
:10208C000421DFF898040068C06A006800F0F2FBD5
:10209C00DFF8880400682C3000F083FB0120DFF8A7
:1020AC007C14096809688860DFF8740400680068AB
:1020BC0050F00200DFF8681409680860DFF85C046F
:1020CC00006840698047DFF85404006800680069C4
:1020DC00C00737D5DFF84404006800684069C007C2
:1020EC0030D5DFF83804006800688069C0B204009D
:1020FC00DFF828040068007B012803D194FAA4F0CF
:10210C00000E04002000C0B2FF2806D1DFF8240422
:10211C000068401CDFF81C140860DFF8000400683D
:10212C00006A00680470DFF8F8030068006850F07B
:10213C000400DFF8EC1309680860DFF8E0030068BE
:10214C0080698047DFF8D4030068006800690007E5
:10215C007DD530077BD5DFF8C4030068407B0028B1
:10216C0005D0DFF8B8030068407B01283DD1002082
:10217C00DFF8A8130968C884DFF8A00300680069B9
:10218C0030F48000DFF8941309680861DFF88C03E1
:10219C000068006950F40000DFF8801309680861DA
:1021AC00DFF894030068401CDFF88C130860DFF83C
:1021BC0058030068407B002808D1DFF860030068F2
:1021CC008068DFF8581309684968086340F20220F8
:1021DC00DFF8481309680968C1F820010820DFF806
:1021EC003C1309680968C86031E0DFF83403006803
:1021FC00006850F00400DFF8281309680860DFF865
:10220C001C0300680068D0F81001401CC349096821
:10221C000968C1F81001C14800680068D0F80001D5
:10222C00BE490968C969BD4A1268928C5118884226
:10223C0007D1BA480068C069B84909680968C1F88B
:10224C0000010120B54909680968C1F81401B348B7
:10225C00006800680069C0063ED5F0063CD5042134
:10226C00AE480068C06A006800F004FBAB48006828
:10227C002C3000F096FAA9480068006930F4001080
:10228C00A649096808614FF40070A44909680968F7
:10229C00C1F820011020A14909680968C860002014
:1022AC0005009E48006800684069800503D4642DD1
:1022BC0001D26D1CF5E799480068407B00280BD1D2
:1022CC0091480068407B002806D1944800688068DB
:1022DC00924909684968086370BD0000F8B58A48DE
:1022EC000068C06A002805D187480068C08C0028A7
:1022FC0000F0C78084480068006910F4C00F40F0FB
:10230C00C08081480068407B002806D17E48006868
:10231C0080687D490968496848637B480068C08CBF
:10232C00002840D078480068006950F48000764955
:10233C000968086174480068858C0026724800683A
:10234C00C76932002900380000F05CFF6E48006855
:10235C00C0696D4909680968C1F800016A480068DC
:10236C00C069694909680968C1F8080166480068CC
:10237C00C08C654909680968C1F8040162480068A5
:10238C00C08C614909680968C1F80C0108205E49D4
:10239C0009680968886040F201105B49096809689E
:1023AC00C1F820016DE0022157480068C06A00683E
:1023BC0000F060FA54480068006950F4001052496B
:1023CC000968086150480068407B03283BD14E489F
:1023DC000068C06A40684C49096808634A4800684C
:1023EC00C06A083048490968486347480068406B30
:1023FC000078040044480068007B012803D194FA5B
:10240C00A4F0000E040008203F4909680968086020
:10241C0040203D490968096808602000C0B23A496B
:10242C0009680968C8610120374909680968C860EA
:10243C004FF40070344909680968886032480068B4
:10244C00406980471DE030480068C06A08302E495A
:10245C0009680968C1F808012B480068C06A40681F
:10246C00294909680968C1F80C0110202649096836
:10247C00096888604FF48070234909680968C1F8BD
:10248C0020012148006890F828000D2804D015D3AD
:10249C000F2809D004D311E010481B49086013E041
:1024AC001048194908600FE00A4817490860184895
:1024BC000068400840001649086005E01F48FFF717
:1024CC0013F8044810490860F1BD000000E100E079
:1024DC0080E200E044140020C00840007C1400207E
:1024EC00CE184500B4140020FF18410010040E4013
:1024FC000100080010170020D81600200000094029
:10250C0000400940008009401C17002030030020C7
:10251C0018170020C01600201417002020170020C8
:10252C002417002008170020281700200C17002063
:10253C002C170020301700203417002048030020EF
:10254C0070B5054605F10F00C408E400C046C0464E
:10255C00A54232D2082C04D2082402E0083000F044
:10256C0047F82248026811000CD1011D0A6802B319
:10257C001368A34238BF111DF8D310E01D68A542A3
:10258C000DD2191D0B68002BF8D11268011D00E04B
:10259C00191D0B6893420CD01D68A542F8D361B18C
:1025AC000D682A68A2F10803A3420AD26A680A607D
:1025BC000FE000F05BFE0028D0D1C046C0460020E2
:1025CC0070BD63190B60121B6E685E600B681A603D
:1025DC002C60096800291DBF4A68002A091D0021CA
:1025EC000160C046C04605F1080070BD20160020F1
:1025FC0000B9704738B5A0F108042068082833D317
:10260C0010F0070F30D1C046C0461848416809B1D8
:10261C008C4203D26160446017E019464B680BB1E1
:10262C00A342FAD30B685D18AC421BD3A54204D16C
:10263C002268D2180A600C4607E04A681AB123686F
:10264C001B199A420ED362604C60616851B12268CA
:10265C0013198B4206D10023036008688018206090
:10266C0048686060C046C04631BD0000201600209E
:10267C000100FF209A4A13688B4204D0994B9A426E
:10268C0001D00C32F7E7974B9A420BD01379180014
:10269C00C0B2042802D0C0B2052803D100231360B5
:1026AC0000231371C0B270472DE9F84F04000D00E0
:1026BC001600AB465FF000098B480078102807D154
:1026CC008A48006850F0010088490860002066E0E4
:1026DC00BBF1000F62D084480078401C824908701E
:1026EC00814800780E2806DB8048006850F0020014
:1026FC007E49086005E07D48006830F002007B49A7
:10270C0008607B4882469AF80000002802D11AF132
:10271C00900AF8E700208AF800001AF1040007007C
:10272C00BBF1810F04D380208146BBF1800B02E00A
:10273C00D946002083466F4800683860C7F804907B
:10274C000020C7F8880000207968884205D23178CB
:10275C00C2191172761C401CF6E72068002801D1C2
:10276C0027600AE020688046D8F88800002802D04C
:10277C00D8F88880F8E7C8F888705E48006800F0E0
:10278C0087F85C480068401C5A4908605948006842
:10279C0000289DD101205749086099E73868BDE8A9
:1027AC00F28F0268002A06D1504A126852F00402D5
:1027BC004E4B1A601FE04E4A11000A1D03689A42E4
:1027CC0004D04D4A914201D09031F6E74A4A9142E9
:1027DC0006D1464A126852F00802444B1A600AE0CD
:1027EC000268D2F88820026001220A703E4A1278F0
:1027FC00521E3D4B1A70704700203B490870012057
:10280C003C490860002080B2102808DA0121384ABF
:10281C0080B2902303FB00221170401CF3E70020D0
:10282C0080B2402816DA00212D4A80B20C2303FB1B
:10283C000022116000212A4A80B20C2303FB0022E3
:10284C0011710021264A80B20C2303FB00229160F7
:10285C00401CE5E72248294908600020234908600C
:10286C000FF2610026490860704780B52448006863
:10287C00804701BD1A4A1368834204D0194B9A420F
:10288C0001D00C32F7E7174B9A4200D01171704708
:10289C001A49096808600121184A1268117119490E
:1028AC000968164A12689160144909680C31134A78
:1028BC001160124909680B4A914202D108490F4A2A
:1028CC001160704710480068401E0F4908600E48A0
:1028DC000068002803D14FF47A700B4908607047E8
:1028EC00640D00206410002098170020E0160020D2
:1028FC0064040020E8160020640D0020EC16002073
:10290C00E4160020C01600204C0400205FEA000CE6
:10291C00830706D011F8013B00F8013BB3B18307E4
:10292C00F8D10A68B2F1013323EA020313F0803FB5
:10293C0002BF40F8042B51F8042FF3E711F8013BC8
:10294C0000F8013B13B111F8013BF9E76046704701
:10295C00012110F01F029140DFF8FC2440B2430922
:10296C0042F823107047012110F01F029140DFF84C
:10297C00EC2440B2430942F8231070472DE9F0478C
:10298C0004002078012806D046D3032823D012D384
:10299C00042830D040E0DFF8C804050050200600C1
:1029AC00DFF8C0040700002080465FF0FF3081464E
:1029BC001A20824632E0DFF8B004050050200600F1
:1029CC00DFF8A0040700082080467FF0080081464D
:1029DC001A20824622E0DFF89404050050200600FD
:1029EC00DFF88C040700002080465FF0FF30814642
:1029FC003020824612E0DFF87C04050050200600EF
:102A0C00DFF8740407005FF4002080467FF4002098
:102A1C0081460020824601E0002049E02879C00769
:102A2C0001D5002044E0DFF854040068012195F939
:102A3C00222091400843DFF8441408606068686104
:102A4C0060882884A068A861E068E861686850F034
:102A5C000100686028680660286847602868C0F82C
:102A6C0008802868C0F80C902868C0F820A060681E
:102A7C002968C1F800016068401C2968C1F8100180
:102A8C0001202968C1F8040101202968C1F814014A
:102A9C0040F201102968C1F8200195F9220040B2DA
:102AAC00FFF761FF95F9220040B2FFF751FF2800B4
:102ABC00BDE8F08770B582B004000D008DF80050B1
:102ACC0000AA012114F10800FFF7EEFD0600002E0C
:102ADC0006D0DFF8B0030068002801D500F09BF8A1
:102AEC00300076BDF8B504000D0016003200290048
:102AFC0014F10800FFF7D8FD0700002F06D0DFF80F
:102B0C0084030068002801D500F085F83800F2BD78
:102B1C000020DFF874130860DFF87003DFF840134F
:102B2C0008600020DFF8381388600020DFF83013CD
:102B3C0048610020DFF8281308840020DFF82013F8
:102B4C0088610020DFF8181348600820DFF81013A4
:102B5C0081F82200DFF83803DFF80C13086000203E
:102B6C00DFF8041388600020DFF8FC1248610020B5
:102B7C00DFF8F41208840020DFF8EC1288610020E2
:102B8C00DFF8E41248600D20DFF8DC1281F8220037
:102B9C00DFF80003DFF8D41208600020DFF8CC1255
:102BAC0088600020DFF8C41248610020DFF8BC12F6
:102BBC0008840020DFF8B41288610020DFF8AC1222
:102BCC0048600E20DFF8A41281F82200DFF8C8025A
:102BDC00DFF8A01208600020A64988600020A549F3
:102BEC0048610020A34908840020A2498861002084
:102BFC00A04948600F209F4981F822009848A749B6
:102C0C0008600FF27D109E490860704780B59C48A3
:102C1C000068804701BD80B59B48006850F00100FA
:102C2C00994908608E489D49086097480078C0070C
:102C3C000BD593480068804799480068994908600B
:102C4C0001219848FEF792FBEFE701BD80B584485F
:102C5C009549086095489649086096480068401C5C
:102C6C009449086000F010F801BD80B57E488E498B
:102C7C00086091488E49086090480068401C8F4954
:102C8C00086000F001F801BD80B587480068006855
:102C9C000069000738D5844800680068406900075F
:102CAC0032D583480068006850F0020080490968FA
:102CBC0008607D4800680068D0F81001401C7A4913
:102CCC0009680968C1F81001774800680068D0F8F5
:102CDC001001754909684969734A1268128C5118B8
:102CEC00884207D17048006840696F4909680968D3
:102CFC00C1F810016C480068C069804701206A491E
:102D0C0009680968C1F8140167480068006800691F
:102D1C00C00632D56448006800684069C0062CD5EE
:102D2C0004216148006880680068FFF7A3FD5E48D5
:102D3C0000680830FFF735FD5B480068406830F4E8
:102D4C0000105949096848604FF4007056490968E9
:102D5C000968C1F820011020534909680968C86046
:102D6C0057480078002805D055480078401E544933
:102D7C00087002E05348FEF7B7FB01BD00000000ED
:102D8C0080B5464800688068002836D04348006803
:102D9C004068800231D40221404800688068006895
:102DAC00FFF768FD3D480068406850F400103B494F
:102DBC0009684860394800688068083037490968F4
:102DCC000968C1F8080135480068806840683349D3
:102DDC0009680968C1F80C011020304909680968B4
:102DEC00886037480078401C354908704FF4807073
:102DFC002A4909680968C1F820012848006890F838
:102E0C002200082806D00D2808D00E280AD00F283A
:102E1C000CD01DE01448214908601CE013481F49E0
:102E2C00086018E013481D49086014E00C481B4961
:102E3C00086014480068002809D52148007800284B
:102E4C0005D111480068400840000F49086002E0B5
:102E5C0003481249086001BD00E100E080E200E097
:102E6C0010150020C0084000341500205815002013
:102E7C00CE1845007C150020FF18410010040E40B0
:102E8C0040170020D81600204817002000060E40DE
:102E9C000000094000400940008009404C17002008
:102EAC00C0160020441700205017002038170020AF
:102EBC0054170020581700203C1700205C170020E6
:102ECC009C1700207855080010B4DFF81823C0B206
:102EDC000A2303FB0022D279012A0AD1C24AC14B30
:102EEC00C0B20A2404FB00331B7A12EB83021100DC
:102EFC0009E0BE4ABB4BC0B20A2404FB00331B7A68
:102F0C0012EB83021100BA4AC0B252F820200A60B8
:102F1C000022B44BC0B20A2404FB00331A7010BC5C
:102F2C00704710B4AF4AC0B20A2303FB0022D27917
:102F3C00012A0AD1AD4AAB4BC0B20A2404FB0033C0
:102F4C001B7A12EB8302110009E0A74AA54BC0B211
:102F5C000A2404FB00331B7A12EB83021100A44AEF
:102F6C00C0B252F820200A6000229E4BC0B20A2444
:102F7C0004FB00331A7010BC70479E49994AC0B2CA
:102F8C000A2303FB0022127A11EB82010A68984B88
:102F9C00C0B253F820305A400A60704710B4022275
:102FAC00904BC0B20A2404FB00331A708D4AC0B295
:102FBC000A2303FB002251808A4AC0B20A2303FB76
:102FCC000022918010BC70472DE9F04182B04FF483
:102FDC007A654FF4FA76A81B1421B0FBF1F7142094
:102FEC000400E4B2002C2FD05FF014081FFA88F80C
:102FFC00B8F1000F0DD0804800680090012100A8A6
:10300C00FEF7B4F90028F9D000F03AF8B8F101084D
:10301C00ECE7E4B2142C05D1C82100A8FEF7A6F900
:10302C000028F9D00020C0B20B2809DAE4B2611EE6
:10303C006C4AC0B20A2303FB00225180401CF2E709
:10304C00ED1BBE19641ECCE700F01AF8C82100A8CD
:10305C00FEF78CF90028F9D00820FFF735FF09207E
:10306C00FFF732FF0A20FFF72FFF6448006850F08B
:10307C000100624908606248FEF736FABDE8F38148
:10308C0010B50024E4B20B2C80F2AA805548E4B2AF
:10309C000A2101FB04000078012872D15148E4B2E6
:1030AC000A2101FB0400B0F90200002804D1200021
:1030BC00C0B2FFF736FF5CE04A48E4B20A2101FBDC
:1030CC000400B0F90200142804D12000C0B2FFF7AC
:1030DC00FBFE4EE04348E4B20A2101FB0400808869
:1030EC00401E4049E4B20A2202FB041188803D488C
:1030FC00E4B20A2101FB04008088002839D1394848
:10310C00E4B20A2101FB0400807901281AD12000C5
:10311C00C0B2FFF706FF3348E4B20A2101FB0400FA
:10312C00B0F90200D0F114002E49E4B20A2202FBDD
:10313C000411888000202B49E4B20A2202FB0411FE
:10314C00887116E02000C0B2FFF7BEFE2548E4B23D
:10315C000A2101FB040040882249E4B20A2202FB46
:10316C000411888001201F49E4B20A2202FB0411D9
:10317C00887101201B49E4B20A2202FB0411087079
:10318C002CE01848E4B20A2101FB04000078022864
:10319C0024D11448E4B20A2101FB04008088401EAB
:1031AC001049E4B20A2202FB041188800D48E4B2F3
:1031BC000A2101FB0400808800280FD12000C0B236
:1031CC00FFF7DBFE0748E4B20A2101FB040040884C
:1031DC000449E4B20A2202FB04118880641C51E702
:1031EC0010BD000000000020300C0E40340C0E40CE
:1031FC00B0010020380C0E40C0160020DC16002058
:10320C001803002062F30F2262F31F42401810F0E3
:10321C00030308D0C91A1FD3DB0748BF00F8012DE0
:10322C0028BF20F8022D130030B41446154610396F
:10323C0028BF20E93C00FAD8490728BF20E90C0038
:10324C0048BF40F8042D890028BF20F8022D48BF44
:10325C0000F8012D30BC7047C91818BF00F8012DBB
:10326C00CB0728BF00F8012D70470A0D07490868E5
:10327C0008B1002070470648C008C0000860054926
:10328C00C908C900091A0160704700BF84170020E3
:10329C000700082000400820012110F01F02914077
:1032AC00DFF8902740B2430942F823107047012100
:1032BC0010F01F029140DFF8802740B2430942F81A
:1032CC0023107047F8B504000D0016008DF800505F
:1032DC00DFF868070078102801D100205CE000AA14
:1032EC000121DFF85C070068001DFFF7DDF907001E
:1032FC00002F50D00020DFF84C17DFF84C27127845
:10330C00120150540120DFF83C17DFF83C271278EB
:10331C0011EB02114860DFF82C07DFF82C17097845
:10332C0010EB01100472DFF81C07DFF81C1709788A
:10333C0010EB011086720020DFF80817DFF8082761
:10334C00127811EB021148720020DFF8F816DFF842
:10335C00F826127811EB0211C860DFF8EC06007841
:10336C00401CDFF8E4160870DFF8D0060078401C2B
:10337C00DFF8C8160870DFF8D0060078102803D1E3
:10338C000020DFF8C4160870DFF8C00600680028BB
:10339C0001D500F041F93800F2BD2DE9F0410400EF
:1033AC000D0016001F00DFF894060078102801D1DC
:1033BC0000205DE032002900DFF884060068001D63
:1033CC00FFF772F98046B8F1000F50D00020DFF8FB
:1033DC007416DFF874261278120150540120DFF8AD
:1033EC006416DFF86426127811EB02114860DFF8DE
:1033FC005406DFF85416097810EB01100472DFF84C
:10340C004406DFF84416097810EB0110877200208F
:10341C00DFF83016DFF83026127811EB0211487203
:10342C000020DFF82016DFF82026127811EB0211AD
:10343C00C860DFF814060078401CDFF80C16087022
:10344C00DFF8F8050078401CDFF8F0150870DFF89D
:10345C00F8050078102803D10020DFF8EC1508706F
:10346C00DFF8E8050068002801D500F0D5F84046E3
:10347C00BDE8F08110B51224DFF8D40500680121F5
:10348C00A1400843DFF8C81508600020DFF8C41518
:10349C000860DFF8C405DFF8A81508600020DFF825
:1034AC00A81508700020DFF8B41508700020DFF8AC
:1034BC008C150870DFF8A805DFF89C150860002053
:1034CC00DFF8941548600020DFF88C158860002028
:1034DC00DFF88415C860DFF86805006800680068CC
:1034EC0050F08000DFF85815096809680860DFF8AB
:1034FC0074050068DFF8701508600521DFF86805B1
:10350C00FDF734FF0028F8D0DFF86005DFF8301540
:10351C000968096808612420DFF82415096809681E
:10352C0008600020DFF818150968096848604FF436
:10353C00A170DFF80C150968096848624FF6356010
:10354C00DFF8FC14096809688862200040B2FFF7B4
:10355C00AEFE200040B2FFF79FFE0020DFF81015F2
:10356C0008600020DFF80C1508600FF2A510DFF8DA
:10357C000815086010BD80B5DFF8FC0400688047B2
:10358C0001BD0120C0B200281DD0DFF8E414096889
:10359C00002918D0DFF8DC1409680978DFF8A024BA
:1035AC00126812685163DFF8CC140968491CDFF803
:1035BC00C4241160DFF8B8140968491EDFF8B02480
:1035CC001160401EDEE7DFF8A814096800291CD141
:1035DC000421DFF86C24126812689162DFF864141D
:1035EC00DFF87824127811EB0211897A002912D1B4
:1035FC00DFF84C1409680968096851F00201DFF81A
:10360C00402412681268116005E00421DFF83024B0
:10361C00126812685162704780B5DFF83804006890
:10362C0050F00100DFF82C140860DFF83804006853
:10363C00DFF834140860DFF81C040078C00709D5E3
:10364C00DFF83404006880470121DFF81C04FDF723
:10365C008DFEF0E701BD10B5DFF820040068040012
:10366C00DFF81C0400680440E00508D5DFF8E4032B
:10367C00006850F08070DFF8DC13086046E0A007AB
:10368C0031D5DFF8BC030068007B00072BD5DFF8D1
:10369C00B00300680068006BDFF8A4130968896840
:1036AC000870DFF89C0300688068401CDFF89013FA
:1036BC0009688860DFF8B8030068401EDFF8B013B3
:1036CC000860DFF8AC03006801281FD1DFF8700335
:1036DC0000680068006850F00200DFF864130968A5
:1036EC000968086012E0600708D5DFF85403006829
:1036FC00007B800702D5FFF744FF07E0DFF8540397
:10370C00006850F00070DFF84C13086010BD00002A
:10371C0080B5DFF834030078DFF84013097888426D
:10372C0000F096800020DFF81813096809684860DB
:10373C002420DFF80C13096809680860DFF804031B
:10374C00DFF8181309780901085C002832D1BC484D
:10375C00006800684068BB49DFF80023127811EB61
:10376C000211097A50EA0140B549096809684860B4
:10377C00B348006840684068BD490860B0480068BC
:10378C0040680830BB490860FFF7FBFE0221AC48DB
:10379C00006840680068FFF76DF8A9480068C068C9
:1037AC0050F00600A6490968C8600FF2A900B2499A
:1037BC00086044E0A348A94909780901085C01287C
:1037CC003DD19F480068006840689D4909680968B8
:1037DC0048609C48A149097810EB01104068A44945
:1037EC00086098489D49097810EB0110C06894490D
:1037FC00096888609E48006801280AD190480068D2
:10380C000068006850F003008D4909680968086079
:10381C0009E08B4800680068006850F00100884996
:10382C0009680968086086480068C06850F008009C
:10383C0083490968C8600FF2F1008F490860854818
:10384C00006810F07F4F03D00FF255108A490860C2
:10385C0001BD000080B57B488049097810EB011050
:10386C00807A002818D182480068002826D1744834
:10387C0000680068006A400720D57148006800683D
:10388C00006AC0071AD56E480068C06830F00600A0
:10389C006B490968C86011E07548006800280DD1B3
:1038AC00674800680068006A400707D564480068EC
:1038BC00C06830F0020062490968C860604800685E
:1038CC00007B800725D404215D48006840680068AF
:1038DC00FEF7D0FF5A480068001DFEF762FF5D48F6
:1038EC000068400840005B4908606648624908600F
:1038FC005A480078401C5949087050480078401EBE
:10390C004E49087055480078102802D100205349C0
:10391C0008705048006810F07F4F03D00FF2810000
:10392C005549086001BD00005148006800282DD1A0
:10393C00434800680068006A800727D54048006843
:10394C000068006AC00721D53D480068C06830F0A7
:10395C0008003B490968C8603E48006840084000C0
:10396C003C4908604748444908603C480078401C82
:10397C003A49087031480078401E30490870374881
:10398C000078102802D100203449087031480068B2
:10399C0010F07F4F03D00FF20900374908607047D1
:1039AC0080B52C480068C0013AD5264826490978CC
:1039BC0010EB0110407A401C2249234A127811EB7B
:1039CC00021148721F482049097810EB0110407A07
:1039DC00032821D121480078401C20490870174841
:1039EC000078401E154908701C480078102802D138
:1039FC0000201A49087012480068007B80070BD51C
:103A0C0006210F48006840680068FEF733FF0C4839
:103A1C000068001DFEF7C5FE002009490968C86052
:103A2C000C4800680002000A0A490860154812494F
:103A3C00086001BD00E100E080E200E09B1700207F
:103A4C00FC1600206411002099170020D8160020C5
:103A5C0010040E40F8160020F41500209A170020D0
:103A6C0000400840C0160020F41600201D1D020066
:103A7C000017002004170020F01600202C400840EE
:103A8C00204008401D37080010B50400207800F0D5
:103A9C0013F9002805D0DFF81004FDF725FD0020F0
:103AAC00E6E0DFF80804FCF7D2FFDFF80014087139
:103ABC00A078DFF8FC1388700020C0B2082815DA53
:103ACC00C0B20119C978DFF8E823C0B28218D170EE
:103ADC00DFF8E0132278142303FB0211C0B2411863
:103AEC00C0B20219D278CA70401CE6E7DFF8C003F6
:103AFC00FCF7ADFFDFF8B813C8722078DFF8B81305
:103B0C0088706078DFF8B013C8706078DFF8A413A1
:103B1C002278142303FB02114870A078DFF8981365
:103B2C000871A078DFF88C132278142303FB0211A0
:103B3C008870DFF88403FCF78AFFDFF87C13487188
:103B4C002078DFF878138870E07ADFF87013C8708B
:103B5C00E07ADFF860132278142303FB0211C87299
:103B6C00207BDFF858130871207BDFF8481322788C
:103B7C00142303FB02110873607BDFF840134871B8
:103B8C00607BDFF830132278142303FB0211487397
:103B9C00A07BDFF828138871A07BDFF8181322783C
:103BAC00142303FB02118873DFF81003FCF74FFF9B
:103BBC00DFF80813C8712078DFF804138870E07BF5
:103BCC00DFF8FC12C870E07BDFF8E81222781423CF
:103BDC0003FB0211C873207CDFF8E4120871207C0F
:103BEC00DFF8D0122278142303FB02110874DFF8DB
:103BFC00D002FCF72CFFDFF8C81248712078DFF8F0
:103C0C00C4128870607CDFF8BC12C870607CDFF86E
:103C1C00A4122278142303FB02114874DFF8A402C7
:103C2C00FCF715FFDFF89C1208712078DFF898126A
:103C3C008870A07CDFF89012C870A07CDFF874123A
:103C4C002278142303FB02118874DFF87C02FCF742
:103C5C00FEFEDFF874120871DFF870020068DFF8FE
:103C6C00701208600FF27110DFF868120860012002
:103C7C0010BD10B582B0040000A897490A68026014
:103C8C00E4B2002C01D08DF8024000A8FCF7DFFE56
:103C9C008DF803008748E4B2142101FB0400C07CBA
:103CAC0050F002008349E4B2142202FB0411C874E0
:103CBC0000A8FCF7DEFE16BD01007E48C9B2142236
:103CCC0002FB0100C07CC00715D57A48C9B214228A
:103CDC0002FB0100C07C000701D504200CE07548F4
:103CEC00C9B2142202FB0100C07C400701D503209D
:103CFC0002E0012000E00020704738B504000D0000
:103D0C00764884700020C0B2082807DAC0B2415D42
:103D1C00724AC0B28218D170401CF4E76F48FCF7AD
:103D2C0096FE6E49C8726D48FCF7A3FE32BD10B505
:103D3C006B48006800283BD06948006800686949F6
:103D4C000860674800680079674908706448006833
:103D5C0000F2060004000020C0B2082806DAC0B247
:103D6C00015D624AC0B28154401CF5E75C480068B2
:103D7C00807B5F4908705A480068C07B5C4948707A
:103D8C0057480068008A5A49488055480068807C2A
:103D9C005749087152480068C07C554948715048D1
:103DAC000068007D52498871FCF7C6FE012000E0D6
:103DBC00002010BD80B54F48FDF796FB0FF21500A3
:103DCC004449086001BD80B542480068804701BD88
:103DDC00000000007047000080B5474800780028BC
:103DEC0011D146484649097850F821004078454998
:103DFC00087042484249097850F82100FCF739FE16
:103E0C0001203D4908703F4800783F494978884275
:103E1C0039D13D488078002829D139480078401C98
:103E2C003749087036480078072829D13648007879
:103E3C00364908733548FDF757FB3548FDF754FBF9
:103E4C001C4831490978142202FB0100C07C50F057
:103E5C00010018492C4A1278142303FB0211C87470
:103E6C000020274908702B481A49086008E02748A9
:103E7C00FDF73AFB2848FDF737FB26481549086043
:103E8C0000201D49087042F210711148FDF76EFABE
:103E9C00002808D01D48FDF727FB1F48FDF724FB21
:103EAC001C480C49086001BDCC520800FC030020E2
:103EBC00AC03002064120020D4030020DC0300209B
:103ECC00E4030020EC030020F4030020C0160020C3
:103EDC008C16002088160020C8570800B803002054
:103EEC003416002084160020911700201016002094
:103EFC001816002050570800941700208402002048
:103F0C00921700209317002030160020A0020020EA
:103F1C00C4030020E13D0800CC030020DFF8D002F0
:103F2C00DFF8D01208600420DFF8CC1208604FF4E0
:103F3C008070B2490860B248B2490860B248006863
:103F4C00C007FBD5AF480068B0490843AD490860CD
:103F5C00AF48B0490860AC4800688007FBD54FF407
:103F6C000070AD49086042F21100AC490860A648E7
:103F7C0000680007FBD542F21200A8490860A2486D
:103F8C0000680007FBD5A648006850F44410A4490B
:103F9C0008609D4800684006FBD570470020A14989
:103FAC0008600020A049086041F26F709F490860CA
:103FBC0000209F49086003209E490860704780B527
:103FCC00984800689C490968401A012817D09B48FA
:103FDC000068401C994908609948006850F020001E
:103FEC009749086097480078800708D59648FDF7F0
:103FFC007BFA92480068FDF797FAFDF787FA894833
:10400C0000688D4908609148006830F480108F4931
:10401C0008608F48006830F004008D4908608848BB
:10402C00006850F080408649086085480068400070
:10403C0001D530BFF9E701BD86488749086087483C
:10404C0087490860704780B586488749086087486B
:10405C00874908608748884908608848884908600B
:10406C0000208849086000208749086087488849F3
:10407C0008605FF0405087490860874887490860AE
:10408C008748884908607FF0010087490860012053
:10409C00864908605FF0F640854908600020854934
:1040AC000860002084490860002084490860844826
:1040BC008449086000208449086084488449086069
:1040CC008448854908608548854908608548864943
:1040DC0008600020854908600020854908608548F3
:1040EC0085490860002085490860002084490860E3
:1040FC007FF07E40834908608348844908604FF410
:10410C00E070834908608348834908600020834934
:10411C0008600020824908600020824908608248BB
:10412C008249086000208249086000F001F801BD56
:10413C005FF001107F49086000207F490860032070
:10414C007E49086041F270707D49086041F27070E0
:10415C007C49086042F6E0607B49086042F6E0600A
:10416C007A49086003207A49086040F2DC507949AA
:10417C00086040F2DC507849086040F6B830774966
:10418C00086040F6B83076490860704710B4754B3B
:10419C0089B2B3FBF1F31A0001280FD1724B1B68E3
:1041AC00DB0705D5674B1A605308684C236016E093
:1041BC00634B1A605308644C236010E002280ED144
:1041CC00694B1B689B0705D5634B1A605308644CFD
:1041DC00236004E05F4B1A605308604C236010BCF2
:1041EC007047624908607047614908607047000079
:1041FC0073EDFC2710040E4040040E4000040E40EA
:10420C0019F0370020040E4068040E4000003701FE
:10421C00013F072028040E4000080E4030040E40D9
:10422C001C040E40C0160020C416002014E000E050
:10423C0018E000E010E000E0CC160020C8160020CA
:10424C00D8160020A41600206402002070040E4032
:10425C0010ED00E00005FF1F54120E40010000A5F8
:10426C0050120E4007000384000C0E40F8FFFC7B3C
:10427C00040C0E40F9D755BF100C0E400628AA406E
:10428C00140C0E40200C0E40240C0E400000018833
:10429C00300C0E40340C0E4000060004500C0E4046
:1042AC00FFF9FFFB540C0E40600C0E40640C0E40EA
:1042BC00700C0E40800C0E40840C0E408C0C0E408A
:1042CC00000001B4A00C0E40A40C0E4057FFBF011F
:1042DC00000E0E4058004000040E0E40E0FFBF01DF
:1042EC00100E0E401F004000140E0E40200E0E400B
:1042FC00240E0E4000FEBF01300E0E40340E0E4058
:10430C00500E0E40540E0E405FFEFF01600E0E402C
:10431C00640E0E4018004000700E0E40800E0E40D1
:10432C00840E0E408C0E0E40E0FF1F00A00E0E40BF
:10433C00A40E0E4000C0084020C0084000C2084037
:10434C000CC2084010C2084004C2084008C2084011
:10435C0020C208402CC2084030C2084024C2084089
:10436C0028C20840808D5B000CC0084004C0084087
:10437C0008C0084080B50020C44908701F20C349FC
:10438C0008748620C149C8730020C04948700020B9
:10439C00BE4908730020BD49C8727820BB494873D8
:1043AC003920BA4948740020B84988730320B749AA
:1043BC0088740020B5498870B920B449C870A5200C
:1043CC00B24908712120B1494871FB20AF4988716D
:1043DC00BD20AE49C8717220AC490872C320AB49EC
:1043EC0048724520A9498872A848FFF74DFB002860
:1043FC001AD00720FEF795FD0520FEF792FD02204E
:10440C00FEF78FFD0820FEF75FFD0920FEF75CFD2F
:10441C000A20FEF759FD9E4800689E4908600FF27D
:10442C0021009D4908600AE07D210720FEF7B6FDBA
:10443C009A48FDF759F80FF2A9209749086001BD79
:10444C0080B50020FFF738FC012806D10020FFF7CB
:10445C0010FC0FF231009049086040F6B8318D48DD
:10446C00FCF784FF002806D08D48FDF73DF80FF2CD
:10447C0071208949086001BD80B587480068804774
:10448C0001BD000080B5032000F040F9002806D0E3
:10449C00032000F044F983490020FFF72EFC012093
:1044AC0000F034F9002806D0012000F038F97E49DC
:1044BC000020FFF722FC022000F028F9002806D08B
:1044CC00022000F02CF979490020FFF716FCFFF7C9
:1044DC002EFC002800F0D68075480078012840F0AA
:1044EC00D1807448007810F07F00734908707248CE
:1044FC000078002811D0022871D06FD3042800F066
:10450C0091807CD3062800F08F80C0F08C80082826
:10451C0000F0B780C0F08980B4E068496548C07984
:10452C00FCF754FF64490870012000F025FA644937
:10453C00402000F036FA61494F2000F032FA614910
:10454C00002000F02EFA50A1032000F02AFA5E4958
:10455C00052000F026FA5D490A2000F022FA5548A1
:10456C00C07964281EDB5348C079594908705848F3
:10457C0000785749097848437FF01D0190FBF1F012
:10458C005349097810EBC100B0F5C8705149086067
:10459C000720FEF799FC4F48016809B20720FEF787
:1045AC00FDFC1AE04348C079332810DA4148C07941
:1045BC00484908600720FEF7B4FC0520FEF784FC90
:1045CC004448016809B20520FEF7E8FC05E0072025
:1045DC00FEF7A7FC0520FEF7A4FC53E052E03B4994
:1045EC0034484078FCF7F2FE334908703649052010
:1045FC0000F0D7F935490A2000F0D3F942E03649EA
:10460C002C48C078FCF7E2FE2B490870012000F022
:10461C00B3F93249402000F0C4F92F49452000F08D
:10462C00C0F92FE02EE02DE02CE0264921484078FF
:10463C00FCF7CCFE2049087013A1032000F0B1F95F
:10464C002049002000F0ADF91A4840781F280EDAF6
:10465C000920FEF766FC0A20FEF763FC4FF4837119
:10466C000120FFF793FD0120FFF7BBFD08E00120BF
:10467C00FFF7BAFD0920FEF727FC0A20FEF724FC01
:10468C0000E0FFE701BD000025000000C015002080
:10469C00C01600207417002070170020EC5508007D
:1046AC00085608001C0400202C04002024040020C0
:1046BC0091170020101600209D1700205404002094
:1046CC007057080058040020B85708005C040020FC
:1046DC009E1700207817002050040020C0570800B7
:1046EC0070477047012110F01F0291408D4A40B273
:1046FC00430942F823107047012110F01F0291402A
:10470C00894A40B2430942F8231070470100884897
:10471C00085C012801D1012000E000207047002135
:10472C00834A8154704738B5002400250020C0B25C
:10473C0004280DDA0021804AC0B2815400217B4A42
:10474C00C0B2815400217D4AC0B28154401CEEE7B6
:10475C000020C0B204281ADA7949C0B211EB40012A
:10476C004978002905D17749C0B251F820100C4383
:10477C000BE07349C0B211EB40014978802904D198
:10478C007049C0B251F820100D43401CE1E76E484F
:10479C0004606E4805606E48006804006D4800684F
:1047AC0005000A20FFF7A8FF0B20FFF7A5FF0A2042
:1047BC00FFF798FF0B20FFF795FF0FF24D006649AE
:1047CC0008606648006850F002006449086064485C
:1047DC00FCF78AFE31BD80B55F480068804701BD9B
:1047EC000200D2B2042A0CDA5548D2B210EB4200C5
:1047FC004078C9B2884204D15248D2B250F8220053
:10480C0000E00020704700000020C0B204280ADA43
:10481C004949C0B2415C002903D00FF20D014E4A48
:10482C001160401CF1E7704770B54E484A4908606A
:10483C000026F6B2042E74DA4B484149F6B211EB5D
:10484C004601497810EB810004003F483C49F6B220
:10485C0011EB4601497810EB810005003648F6B2A1
:10486C00305C00285BD041483B4908601921404826
:10487C00F6B210EB8600FCF779FD00284FD03048DB
:10488C00F6B210F81600002811D12068C0432D494B
:10489C00F6B251F82610084204D001202749F6B28E
:1048AC00705414E000202549F6B270540FE02068D3
:1048BC002449F6B251F82610084204D001201F49B1
:1048CC00F6B2705403E000201C49F6B270541B4839
:1048DC00F6B2305C1549F6B2715C884214D01748B8
:1048EC00F6B2305C1149F6B270541048F6B2305C36
:1048FC00012809D101200E49F6B270541D480068F8
:10490C000C49F6B241F8260000200B49F6B270545F
:10491C0028680C49F6B251F8261008432860761C1A
:10492C0087E770BD00E100E080E200E0981600200F
:10493C00A0160020E4150020901600209C160020E4
:10494C000C04002060570800400C0E40400E0E4036
:10495C004C0C0E404C0E0E4094160020DC16002021
:10496C0074030020154808003C0C0E403548080024
:10497C00D4150020C016002010B504004648447021
:10498C000023454A02213C20FEF707FD43480068FE
:10499C00002805D500204249884201D2401CFAE784
:1049AC0010BD70B504000D0054F08000C0B2FFF7CC
:1049BC00E3FF012006002878002806D02878394922
:1049CC00F6B270546D1C761CF5E70023354AF6B22E
:1049DC0031003C20FEF7E1FC70BD00B589B000A8A9
:1049EC0031490CC90CC00839083802A82F491622C5
:1049FC00FCF72EFD0FF2CD002D4908604FF400702E
:104A0C002C4908602C4800682C49086028212B4848
:104A1C00FCF7ACFC0028F9D0012200213C20FEF769
:104A2C0051FC012300AA06213C20FEF7B6FC2248CB
:104A3C00006822490860C8212048FCF797FC002830
:104A4C00F9D000220C213C20FEF73CFC0820FEF79C
:104A5C003BFA0920FEF738FA0A20FEF735FA012254
:104A6C0040213C20FEF72EFC002302AA14213C20FE
:104A7C00FEF793FC10480068104908601048006865
:104A8C0050F008000E49086009B000BD80B5084818
:104A9C000068804701BD00008A170020D81600204E
:104AAC00A086010084010020B0570800945608002D
:104ABC00D0160020300E0E40C0160020D416002058
:104ACC00DC16002070470000012110F01F029140FD
:104ADC00604A40B2430942F823107047012110F09C
:104AEC001F0291405C4A40B2430942F823107047C0
:104AFC0010B588B000A859492022FCF7B9FC002059
:104B0C00C0B2082809DA00A9C0B251F82010544AE2
:104B1C00C0B242F82010401CF2E70024E4B21D2C75
:104B2C0009DA200040B2FFF7CFFF200040B2FFF7B8
:104B3C00D5FF641CF2E708B010BD80B50020FEF76D
:104B4C00F0F90320FEF7EDF90120FEF7EAF9062053
:104B5C00FEF7E7F90220FEF7E4F90420FEF7E1F98D
:104B6C000520FEF7DEF90720FEF7AEF9FEE73D481B
:104B7C000068401C3B4908603B48006830F08040AE
:104B8C003949086039480088401E38490880374840
:104B9C000088002808D14FF47A70344908803448D2
:104BAC000068401C324908607047F8B5314800680D
:104BBC00040014F400300500002D1CD00027FFB2B7
:104BCC00042F18DA00213800C0B2FFF709FE0600E6
:104BDC0035420ED028480068304327490860012030
:104BEC002649FFB278541F4800682549FFB241F8A6
:104BFC0027007F1CE3E70A20FFF770FFF1BDF8B533
:104C0C0020480068040014F007000500002D1CD09B
:104C1C000027FFB2042F18DA80213800C0B2FFF74A
:104C2C00DFFD060035420ED01748006830431649A8
:104C3C00086001201149FFB278540A4800681049F5
:104C4C00FFB241F827007F1CE3E70B20FFF746FF7C
:104C5C00F1BD000080E100E080E200E05855080062
:104C6C0000E400E0C0160020D816002060040020EC
:104C7C00C41600204C0C0E40440C0E409016002024
:104C8C00D41500204C0E0E40440E0E40816807E0F7
:104C9C0002681168536889185B18C3600832026097
:104CAC00C2689142F4D04A1C82600878704738B5CB
:104CBC0004460D46A068E168884212D120686168FC
:104CCC00884208BF00F0C3F82068227C016802B15A
:104CDC004944A16042685218E26008302060914259
:104CEC00ECD0A068401CA06000F8015D31BD2DE93E
:104CFC00F0418AB000F1080105910268520801EBFD
:104D0C00C20106910021079108910168490800EB46
:104D1C00C10108310091017901F001018DF81010E9
:104D2C0040680099400801EBC000019000200290FF
:104D3C00039084E005A8FFF7A9FF044614F00306CE
:104D4C0003D105A8FFF7A2FFC61C25090F2D1BD107
:104D5C0005A8FFF79BFF00F10F0515E0059801680A
:104D6C0008180599079049680818089005980830A4
:104D7C000590079808998842F0D0401C079010F8CD
:104D8C00011D00A8FFF793FF761EF2D1002D51D024
:104D9C0005A8FFF77BFF0646A00800F003000328D8
:104DAC0004BF05A8FFF772FFDDF800800299039F8E
:104DBC0006EB002008E0A8F10808801A58F8081C37
:104DCC0058F8042C5718394658F8082C8A1A82427D
:104DDC00F1D30C1AAE1C2DD0BC4206D158F8044BA2
:104DEC0058F8040B0719BC42F8D00298039914F830
:104DFC00015B884217D100980199884208BF00F0E6
:104E0C0026F8009800689DF81010029009B14844EB
:104E1C000290009902984968009A09180832039187
:104E2C0000928842E7D00298401C0290761E00F84F
:104E3C00015DD1D10298039988427FF47BAF019830
:104E4C00009981427FF476AF0AB0BDE8F081012071
:104E5C0000F000B880B5C046C046024A11001820C8
:104E6C00ABBEFBE726000200012110F01F029140AF
:104E7C003F4A40B2430942F823107047012110F019
:104E8C001F0291403B4A40B2430942F8231070473D
:104E9C0000B587B000A83B491922FCF7D9FA3A486B
:104EAC003A490860FF203A49086040F2011039493C
:104EBC00086039483949086039483A490860002087
:104ECC00C0B2082807D20FF249012C4AC0B242F8EE
:104EDC002010401CF4E70120294908701A20FFF724
:104EEC00CDFF1A20FFF7C0FF00A8FCF7FDFA2E48F3
:104EFC00006850F040002C4908600FF2BD002B49AF
:104F0C00086007B000BD80B528480068804701BD27
:104F1C00704738B50025EDB2032D21D22448006826
:104F2C001549EDB2695CC840C00717D52148124934
:104F3C00EDB2695C50F821000400200080B20F49EA
:104F4C000D4AEDB2AA5C51F82210884701200A499B
:104F5C00EDB2695688400E49086001E06D1CDAE735
:104F6C000120074908705FF080600249086031BD7C
:104F7C0000E100E080E200E044040020A0150020E5
:104F8C008C170020985508000017040F04800A4065
:104F9C0014800A4064800A400100040068800A40C2
:104FAC00FFFF0F0028800A40DC1600202816002086
:104FBC001C800A4030800A4070470000012110F02C
:104FCC001F0291402B4A40B2430942F8231070470C
:104FDC00012110F01F029140274A40B2430942F8C8
:104FEC002310704700B587B000A825491522FCF79F
:104FFC002FFA2448244908602448254908602520B4
:10500C0024490860102024490860EF2023490860D7
:10501C000220234908602348184908601720FFF72D
:10502C00D7FF1720FFF7CAFF0FF28D001E4908604B
:10503C0000A8FCF759FA1D48006850F020001B49E5
:10504C00086007B000BD80B517480068804701BDF7
:10505C0080B517480068C00607D516480068401C84
:10506C00144908600548006880475FF40000024955
:10507C00086001BD00E100E080E200E0681700205C
:10508C00C4560800000810000401084003C40C00BA
:10509C00440008405C000840640008406800084078
:1050AC0040000840EF46080064170020DC16002082
:1050BC00600008406C1700207047000080B5334832
:1050CC00006850F0004031490860FEF7B5FFFEF76C
:1050DC00BAFFFEF723FFFFF70BFDFEF75FFFFDF7AF
:1050EC008BFBFDF715FDFCF7B1FAFFF71CFBFFF787
:1050FC0079FFFCF75FFEFEF7BDF9FFF7C9FEFFF77E
:10510C006CFCFDF761FFFBF73AFAFEF753FE00F07B
:10511C0047F8FFF72FF900F06BF800F077F8FCF781
:10512C005BFA1A48006840004008184908601848A3
:10513C0018490860FDF7A4FFFFF74DFBFDF766FD6E
:10514C00FFF781FFFCF7ACFEFEF715FAFFF7DBFE6D
:10515C00FDF78BFBFCF7D8FAFFF798FCFBF724FB69
:10516C00FEF731FE00F036F8FFF786F900F045F84F
:10517C0000F051F85FF0004007490860FEF71FFF90
:10518C005FF0004005490860D1E700BFD816002049
:10519C00010000A550120E40300C0E40340C0E4095
:1051AC0000B587B000A8DFF838101722FCF750F9CB
:1051BC00DFF83000006850F08000DFF8281008603D
:1051CC000FF22900DFF82010086000A8FCF78CF91A
:1051DC0007B000BD80B5DFF810000068804701BD46
:1051EC00AC560800DC160020601700207047000049
:1051FC000FF2150003490860704780B5014800683C
:10520C00804701BD7C170020704700000FF215008D
:10521C0003490860704780B501480068804701BDAC
:10522C0080170020704700004C454400000000002F
:10523C000000425554544F4E000000004445425566
:10524C004700000000004C43440000000000000038
:10525C00414E540000000000000054494D455200DE
:10526C0000000000414443000000000000005344D3
:10527C0000000000000000000A0D496E69746961AD
:10528C006C697A6174696F6E20636F6D706C657494
:10529C00652E205479706520656E2B633030206646
:1052AC006F72206465627567206D656E752E2020A7
:1052BC004661696C6564207461736B733A0A0D0006
:1052CC00416E7441737369676E4368616E6E656C91
:1052DC00206572726F723A206368616E6E656C2025
:1052EC006973206E6F7420756E636F6E6669677577
:1052FC007265640A0D0000000A0D4E6F2073706118
:10530C00636520696E20416E7451756575654170D9
:10531C00706C69636174696F6E4D657373616765F9
:10532C000A0D00000A0D4E6F2073706163652069D1
:10533C006E20416E7451756575654F7574676F6934
:10534C006E674D6573736167650A0D0010B507498B
:10535C0079441831064C7C44163404E00A68081D64
:10536C00511888470146A142F8D110BD94010000A4
:10537C00BC0100000A0D556E657870656374656438
:10538C0020414E54206D6573736167652073697A93
:10539C00650A0A0D00000000416E7454783A206DC5
:1053AC00736720616C726561647920696E2070721C
:1053BC006F67726573730A0D0000000053686F7796
:1053CC0020646562756720636F6D6D616E64206C1F
:1053DC006973742020202020202020200000000051
:1053EC00546F67676C65204C45442074657374205A
:1053FC0020202020202020202020202020202020A1
:10540C0000000000546F67676C65207379737465D6
:10541C006D2074696D696E67207761726E696E6755
:10542C00202020200000000044756D6D7933202071
:10543C002020202020202020202020202020202060
:10544C0020202020202020200000000044756D6DBD
:10545C0079342020202020202020202020202020D3
:10546C0020202020202020202020202000000000B0
:10547C0044756D6D7935202020202020202020209F
:10548C002020202020202020202020202020202010
:10549C000000000044756D6D7936202020202020FE
:1054AC0020202020202020202020202020202020F0
:1054BC00202020200000000044756D6D79372020DD
:1054CC0020202020202020202020202020202020D0
:1054DC002020202020202020000000000A0D5379DD
:1054EC007374656D2074696D652076696F6C617479
:1054FC00696F6E207265706F7274696E6720000040
:10550C00C7BFFFFF3C130000640400200000000034
:10551C00DFF7FFFF0200000002000000A402000001
:10552C00BC02000000000020620400003A20756EEE
:10553C006578706563746564206368616E6E656C14
:10554C00206576656E740A0D00000000F000F0F026
:10555C0000F0F0F0F0F05050503030F0F0F020F05F
:10556C0020F0004040F0F0F0F01000000A0D554122
:10557C00525420636F756E746572206F7574206F52
:10558C00662073796E630A0D0000000041444331BC
:10559C0032207461736B20696E697469616C697A0D
:1055AC0065640A0D000000000D0A414E5420657818
:1055BC00706563746564206D7367206661696C0A3D
:1055CC000D0000000A0A0D417661696C61626C6520
:1055DC0020636F6D6D616E64733A0A0D00000000FC
:1055EC00205461736B20696E697469616C697A65AA
:1055FC0064206661696C65640A200000205573653F
:10560C007220617070207365747570206661696CAE
:10561C0065640A200000000000F00CF8002801D09E
:10562C00FFF794FE0020C046C046FFF747FD00F090
:10563C000BF800000249034801600120704700BFCD
:10564C000000080008ED00E000F000B807463846FE
:10565C00FFF700FCFBE70000416E7452783A206DB6
:10566C00657373616765206661696C65640A0D001A
:10567C00416E7454783A2053454E2074696D656FB1
:10568C0075740A0D0000000052415A4F52205341CC
:10569C004D3355322041534349492020200000000E
:1056AC00536443617264207461736B206469736129
:1056BC00626C65640A0D000054696D657231206975
:1056CC006E697469616C697A65640A0D000000008A
:1056DC00416E7452783A2074696D656F75740A0D59
:1056EC0000000000416E7454783A204E6F20746FA5
:1056FC006B656E0A0D000000416E7454783A204EB2
:10570C006F2053594E430A0D000000004368616E30
:10571C006E656C20636C6F7365640A0D000000008D
:10572C004E6F206661696C6564207461736B732EB7
:10573C0000000000414E542076657273696F6E3A1A
:10574C0020000000414E5420415049207265616494
:10575C00790A0D00000002000100000002000000A8
:10576C0004000000546865206865617274207261E1
:10577C0074653A005363616E6E696E6720000000B9
:10578C000A0D44756D6D79210A0A0D000A0D4C65E0
:10579C006420546573742000C046C046C046C046A1
:1057AC00FFF73AFF383914725E6D00004D49443AE8
:1057BC00000000005049443A00000000014B00007A
:1057CC00100101001402F00253010180000A1011B3
:1057DC0000004C656E677468206D69736D6174634D
:1057EC00680A0D14300B436F6D6D616E6420657229
:1057FC00726F721210090000556E657870656374D3
:10580C006517B00476656E740A0D1410376D6573E8
:10581C00736167650A0D0A0A0D2A2A2A2052415A19
:10582C004F522053414D3355322041534349492067
:10583C004C434420444556454C4F504D454E542006
:10584C00424F415244202D200B0A0D44656275676E
:10585C002072656164795810230A0D232323206E6E
:10586C00524635313432322050726F6772616D6D31
:10587C00696E67204D6F64653A206E6F204142104F
:10588C000C66756E6374696F6E616C697479203423
:10589C004223AD1007C853080049170800EC081044
:1058AC00070118080010540800ED0812340812E71C
:1058BC0018525808527C0852A00852C408F31A40D7
:1058CC0000011220043131120404120104120804E4
:1058DC0024010200005D4300101742080B21B47430
:1058EC00066368616E6E656C203310032030787827
:1058FC0078FC242773706F6E7365206464200066D7
:10590C0061696C65642E20486F737420494F732055
:10591C0073657420746F2048695A2E0D0A20700626
:10592C005472616E736D697445340474696D656F7E
:10593C007596240200000D0A8365C61404746F6FFB
:10594C00206C6F3C1115159F112045A32001316D62
:10595C0073372556240376696F6C614A223ACE1050
:10596C000400AC030020FC0412D40412DC0412E486
:10597C000412EC0412F404C1C4E006617373696789
:10598C006E2000DC63756E1AC1181001636C6FE435
:10599C0021641403496E697469B9227A8011253027
:1059AC00012E2E2E184B0A0A0D48027461736B815E
:1059BC00419474014C4544F08A732B50100053539E
:1059CC0050205065726970686572616C7320521A50
:1059DC001001496E765E2364202024056174746581
:1059EC006D70743BD19010016F7065A440044275CA
:1059FC0074746F6E73615A620A4146634719D831E9
:105A0C003C4404666C6167733A6870010946000196
:105A1C0083094F0C434F4B2020024641494C0A430B
:105A2C0003421843055108430343085302450852E7
:105A3C00470830016E00C00850014D003E4B2280DB
:105A4C00023002656E2B635012FF0140018007018A
:105A5C0008520208300203014F4EDB3002004F4661
:105A6C00460918080102030008200800E8039F18E3
:0C5A7C0001202000613108210403E80330
:04000005000857A5F3
:00000001FF
